{
  "_format": "hh-sol-artifact-1",
  "contractName": "TrustlessCredit",
  "sourceName": "contracts/TrustlessCredit.sol",
  "abi": [
    {
      "anonymous": false,
      "inputs": [
        {
          "indexed": true,
          "internalType": "uint256",
          "name": "recordId",
          "type": "uint256"
        }
      ],
      "name": "CreditRecordClosed",
      "type": "event"
    },
    {
      "anonymous": false,
      "inputs": [
        {
          "indexed": true,
          "internalType": "uint256",
          "name": "recordId",
          "type": "uint256"
        },
        {
          "indexed": true,
          "internalType": "address",
          "name": "borrower",
          "type": "address"
        },
        {
          "indexed": false,
          "internalType": "uint256",
          "name": "amount",
          "type": "uint256"
        },
        {
          "indexed": false,
          "internalType": "uint256",
          "name": "interestRate",
          "type": "uint256"
        },
        {
          "indexed": false,
          "internalType": "uint256",
          "name": "term",
          "type": "uint256"
        }
      ],
      "name": "CreditRecordCreated",
      "type": "event"
    },
    {
      "inputs": [
        {
          "internalType": "uint256",
          "name": "_recordId",
          "type": "uint256"
        }
      ],
      "name": "closeCreditRecord",
      "outputs": [],
      "stateMutability": "nonpayable",
      "type": "function"
    },
    {
      "inputs": [
        {
          "internalType": "uint256",
          "name": "_amount",
          "type": "uint256"
        },
        {
          "internalType": "uint256",
          "name": "_interestRate",
          "type": "uint256"
        },
        {
          "internalType": "uint256",
          "name": "_term",
          "type": "uint256"
        }
      ],
      "name": "createCreditRecord",
      "outputs": [
        {
          "internalType": "uint256",
          "name": "",
          "type": "uint256"
        }
      ],
      "stateMutability": "nonpayable",
      "type": "function"
    },
    {
      "inputs": [
        {
          "internalType": "uint256",
          "name": "",
          "type": "uint256"
        }
      ],
      "name": "creditRecords",
      "outputs": [
        {
          "internalType": "address",
          "name": "borrower",
          "type": "address"
        },
        {
          "internalType": "uint256",
          "name": "amount",
          "type": "uint256"
        },
        {
          "internalType": "uint256",
          "name": "interestRate",
          "type": "uint256"
        },
        {
          "internalType": "uint256",
          "name": "term",
          "type": "uint256"
        },
        {
          "internalType": "uint256",
          "name": "startTime",
          "type": "uint256"
        },
        {
          "internalType": "bool",
          "name": "isActive",
          "type": "bool"
        }
      ],
      "stateMutability": "view",
      "type": "function"
    },
    {
      "inputs": [
        {
          "internalType": "uint256",
          "name": "_recordId",
          "type": "uint256"
        }
      ],
      "name": "getCreditRecord",
      "outputs": [
        {
          "internalType": "address",
          "name": "borrower",
          "type": "address"
        },
        {
          "internalType": "uint256",
          "name": "amount",
          "type": "uint256"
        },
        {
          "internalType": "uint256",
          "name": "interestRate",
          "type": "uint256"
        },
        {
          "internalType": "uint256",
          "name": "term",
          "type": "uint256"
        },
        {
          "internalType": "uint256",
          "name": "startTime",
          "type": "uint256"
        },
        {
          "internalType": "bool",
          "name": "isActive",
          "type": "bool"
        }
      ],
      "stateMutability": "view",
      "type": "function"
    },
    {
      "inputs": [],
      "name": "recordCount",
      "outputs": [
        {
          "internalType": "uint256",
          "name": "",
          "type": "uint256"
        }
      ],
      "stateMutability": "view",
      "type": "function"
    }
  ],
  "bytecode": "0x608060405234801561001057600080fd5b506105b1806100206000396000f3fe608060405234801561001057600080fd5b50600436106100575760003560e01c806355e0b5cb1461005c578063587ce02f146100ad5780638f0dc831146100ce578063900407bc1461011e578063f08085ec14610127575b600080fd5b61006f61006a36600461050f565b61013c565b604080516001600160a01b03909716875260208701959095529385019290925260608401526080830152151560a082015260c0015b60405180910390f35b6100c06100bb366004610528565b6101dd565b6040519081526020016100a4565b61006f6100dc36600461050f565b6000602081905290815260409020805460018201546002830154600384015460048501546005909501546001600160a01b039094169492939192909160ff1686565b6100c060015481565b61013a61013536600461050f565b6103c5565b005b60008060008060008060015487106101935760405162461bcd60e51b8152602060048201526015602482015274149958dbdc9908191bd95cc81b9bdd08195e1a5cdd605a1b60448201526064015b60405180910390fd5b5050506000938452505050602081905260409020805460018201546002830154600384015460048501546005909501546001600160a01b039094169592949193909260ff90911690565b600080841161022e5760405162461bcd60e51b815260206004820152601d60248201527f416d6f756e74206d7573742062652067726561746572207468616e2030000000604482015260640161018a565b6000831161028a5760405162461bcd60e51b8152602060048201526024808201527f496e7465726573742072617465206d75737420626520677265617465722074686044820152630616e20360e41b606482015260840161018a565b600082116102da5760405162461bcd60e51b815260206004820152601b60248201527f5465726d206d7573742062652067726561746572207468616e20300000000000604482015260640161018a565b60018054600091826102eb83610554565b909155506040805160c0810182523380825260208083018a81528385018a815260608086018b81524260808801908152600160a0890181815260008c81528089528b902099518a546001600160a01b0319166001600160a01b03909116178a55955190890155925160028801555160038701559051600486015590516005909401805460ff19169415159490941790935583518a815290810189905292830187905292935083917f54dd14c9d267dc0e4d6217e97c97eea1a6a6d02c321d6f1c0658b6324eaf34a7910160405180910390a3949350505050565b600154811061040e5760405162461bcd60e51b8152602060048201526015602482015274149958dbdc9908191bd95cc81b9bdd08195e1a5cdd605a1b604482015260640161018a565b6000818152602081905260409020600581015460ff166104705760405162461bcd60e51b815260206004820152601860248201527f5265636f726420697320616c726561647920636c6f7365640000000000000000604482015260640161018a565b80546001600160a01b031633146104d45760405162461bcd60e51b815260206004820152602260248201527f4f6e6c7920626f72726f7765722063616e20636c6f736520746865207265636f6044820152611c9960f21b606482015260840161018a565b60058101805460ff1916905560405182907fb2a94c2a662c8615af3f4f3127f8a82cd77dd47c26dc470f5bda47406533e82c90600090a25050565b60006020828403121561052157600080fd5b5035919050565b60008060006060848603121561053d57600080fd5b505081359360208301359350604090920135919050565b60006001820161057457634e487b7160e01b600052601160045260246000fd5b506001019056fea2646970667358221220600f87d3e5ea263b7ca85e15b334002920ac13e02f4554159f2ec3f8a756d84864736f6c63430008140033",
  "linkReferences": {},
  "deployedLinkReferences": {}
}