{
  "_format": "hh-sol-artifact-1",
  "contractName": "LoanSystem",
  "sourceName": "contracts/LoanSystem.sol",
  "abi": [
    {
      "inputs": [],
      "stateMutability": "nonpayable",
      "type": "constructor"
    },
    {
      "anonymous": false,
      "inputs": [
        {
          "indexed": true,
          "internalType": "address",
          "name": "borrower",
          "type": "address"
        },
        {
          "indexed": false,
          "internalType": "uint256",
          "name": "amount",
          "type": "uint256"
        },
        {
          "indexed": false,
          "internalType": "uint256",
          "name": "duration",
          "type": "uint256"
        },
        {
          "indexed": false,
          "internalType": "uint256",
          "name": "creditScore",
          "type": "uint256"
        }
      ],
      "name": "LoanApproved",
      "type": "event"
    },
    {
      "anonymous": false,
      "inputs": [
        {
          "indexed": true,
          "internalType": "address",
          "name": "borrower",
          "type": "address"
        },
        {
          "indexed": false,
          "internalType": "uint256",
          "name": "amount",
          "type": "uint256"
        },
        {
          "indexed": false,
          "internalType": "uint256",
          "name": "creditScore",
          "type": "uint256"
        },
        {
          "indexed": false,
          "internalType": "string",
          "name": "reason",
          "type": "string"
        }
      ],
      "name": "LoanRejected",
      "type": "event"
    },
    {
      "anonymous": false,
      "inputs": [
        {
          "indexed": true,
          "internalType": "address",
          "name": "borrower",
          "type": "address"
        },
        {
          "indexed": false,
          "internalType": "uint256",
          "name": "amount",
          "type": "uint256"
        },
        {
          "indexed": false,
          "internalType": "uint256",
          "name": "loanId",
          "type": "uint256"
        }
      ],
      "name": "LoanRepaid",
      "type": "event"
    },
    {
      "anonymous": false,
      "inputs": [
        {
          "indexed": true,
          "internalType": "address",
          "name": "borrower",
          "type": "address"
        },
        {
          "indexed": false,
          "internalType": "uint256",
          "name": "amount",
          "type": "uint256"
        },
        {
          "indexed": false,
          "internalType": "uint256",
          "name": "duration",
          "type": "uint256"
        },
        {
          "indexed": false,
          "internalType": "string",
          "name": "purpose",
          "type": "string"
        }
      ],
      "name": "LoanRequested",
      "type": "event"
    },
    {
      "inputs": [],
      "name": "MAX_FRAUD_SCORE",
      "outputs": [
        {
          "internalType": "uint256",
          "name": "",
          "type": "uint256"
        }
      ],
      "stateMutability": "view",
      "type": "function"
    },
    {
      "inputs": [],
      "name": "MIN_CREDIT_SCORE",
      "outputs": [
        {
          "internalType": "uint256",
          "name": "",
          "type": "uint256"
        }
      ],
      "stateMutability": "view",
      "type": "function"
    },
    {
      "inputs": [
        {
          "internalType": "address",
          "name": "",
          "type": "address"
        },
        {
          "internalType": "uint256",
          "name": "",
          "type": "uint256"
        }
      ],
      "name": "activeLoans",
      "outputs": [
        {
          "internalType": "address",
          "name": "borrower",
          "type": "address"
        },
        {
          "internalType": "uint256",
          "name": "amount",
          "type": "uint256"
        },
        {
          "internalType": "uint256",
          "name": "duration",
          "type": "uint256"
        },
        {
          "internalType": "uint256",
          "name": "interestRate",
          "type": "uint256"
        },
        {
          "internalType": "uint256",
          "name": "startTime",
          "type": "uint256"
        },
        {
          "internalType": "uint256",
          "name": "dueTime",
          "type": "uint256"
        },
        {
          "internalType": "bool",
          "name": "isRepaid",
          "type": "bool"
        },
        {
          "internalType": "uint256",
          "name": "creditScore",
          "type": "uint256"
        },
        {
          "internalType": "string",
          "name": "aiReasoning",
          "type": "string"
        }
      ],
      "stateMutability": "view",
      "type": "function"
    },
    {
      "inputs": [
        {
          "internalType": "address",
          "name": "_borrower",
          "type": "address"
        },
        {
          "internalType": "uint256",
          "name": "_requestId",
          "type": "uint256"
        },
        {
          "internalType": "uint256",
          "name": "_interestRate",
          "type": "uint256"
        }
      ],
      "name": "approveLoan",
      "outputs": [],
      "stateMutability": "nonpayable",
      "type": "function"
    },
    {
      "inputs": [
        {
          "internalType": "address",
          "name": "_borrower",
          "type": "address"
        }
      ],
      "name": "getActiveLoans",
      "outputs": [
        {
          "components": [
            {
              "internalType": "address",
              "name": "borrower",
              "type": "address"
            },
            {
              "internalType": "uint256",
              "name": "amount",
              "type": "uint256"
            },
            {
              "internalType": "uint256",
              "name": "duration",
              "type": "uint256"
            },
            {
              "internalType": "uint256",
              "name": "interestRate",
              "type": "uint256"
            },
            {
              "internalType": "uint256",
              "name": "startTime",
              "type": "uint256"
            },
            {
              "internalType": "uint256",
              "name": "dueTime",
              "type": "uint256"
            },
            {
              "internalType": "bool",
              "name": "isRepaid",
              "type": "bool"
            },
            {
              "internalType": "uint256",
              "name": "creditScore",
              "type": "uint256"
            },
            {
              "internalType": "string",
              "name": "aiReasoning",
              "type": "string"
            }
          ],
          "internalType": "struct LoanSystem.Loan[]",
          "name": "",
          "type": "tuple[]"
        }
      ],
      "stateMutability": "view",
      "type": "function"
    },
    {
      "inputs": [
        {
          "internalType": "address",
          "name": "_borrower",
          "type": "address"
        }
      ],
      "name": "getLoanRequests",
      "outputs": [
        {
          "components": [
            {
              "internalType": "address",
              "name": "borrower",
              "type": "address"
            },
            {
              "internalType": "uint256",
              "name": "amount",
              "type": "uint256"
            },
            {
              "internalType": "uint256",
              "name": "duration",
              "type": "uint256"
            },
            {
              "internalType": "string",
              "name": "purpose",
              "type": "string"
            },
            {
              "internalType": "string",
              "name": "metadata",
              "type": "string"
            },
            {
              "internalType": "uint256",
              "name": "timestamp",
              "type": "uint256"
            },
            {
              "internalType": "bool",
              "name": "isApproved",
              "type": "bool"
            },
            {
              "internalType": "uint256",
              "name": "creditScore",
              "type": "uint256"
            },
            {
              "internalType": "uint256",
              "name": "fraudScore",
              "type": "uint256"
            },
            {
              "internalType": "string",
              "name": "aiReasoning",
              "type": "string"
            }
          ],
          "internalType": "struct LoanSystem.LoanRequest[]",
          "name": "",
          "type": "tuple[]"
        }
      ],
      "stateMutability": "view",
      "type": "function"
    },
    {
      "inputs": [
        {
          "internalType": "address",
          "name": "",
          "type": "address"
        },
        {
          "internalType": "uint256",
          "name": "",
          "type": "uint256"
        }
      ],
      "name": "loanRequests",
      "outputs": [
        {
          "internalType": "address",
          "name": "borrower",
          "type": "address"
        },
        {
          "internalType": "uint256",
          "name": "amount",
          "type": "uint256"
        },
        {
          "internalType": "uint256",
          "name": "duration",
          "type": "uint256"
        },
        {
          "internalType": "string",
          "name": "purpose",
          "type": "string"
        },
        {
          "internalType": "string",
          "name": "metadata",
          "type": "string"
        },
        {
          "internalType": "uint256",
          "name": "timestamp",
          "type": "uint256"
        },
        {
          "internalType": "bool",
          "name": "isApproved",
          "type": "bool"
        },
        {
          "internalType": "uint256",
          "name": "creditScore",
          "type": "uint256"
        },
        {
          "internalType": "uint256",
          "name": "fraudScore",
          "type": "uint256"
        },
        {
          "internalType": "string",
          "name": "aiReasoning",
          "type": "string"
        }
      ],
      "stateMutability": "view",
      "type": "function"
    },
    {
      "inputs": [],
      "name": "owner",
      "outputs": [
        {
          "internalType": "address",
          "name": "",
          "type": "address"
        }
      ],
      "stateMutability": "view",
      "type": "function"
    },
    {
      "inputs": [
        {
          "internalType": "address",
          "name": "_borrower",
          "type": "address"
        },
        {
          "internalType": "uint256",
          "name": "_requestId",
          "type": "uint256"
        },
        {
          "internalType": "string",
          "name": "_reason",
          "type": "string"
        }
      ],
      "name": "rejectLoan",
      "outputs": [],
      "stateMutability": "nonpayable",
      "type": "function"
    },
    {
      "inputs": [
        {
          "internalType": "uint256",
          "name": "_loanId",
          "type": "uint256"
        }
      ],
      "name": "repayLoan",
      "outputs": [],
      "stateMutability": "payable",
      "type": "function"
    },
    {
      "inputs": [
        {
          "internalType": "uint256",
          "name": "_amount",
          "type": "uint256"
        },
        {
          "internalType": "uint256",
          "name": "_duration",
          "type": "uint256"
        },
        {
          "internalType": "string",
          "name": "_purpose",
          "type": "string"
        },
        {
          "internalType": "string",
          "name": "_metadata",
          "type": "string"
        },
        {
          "internalType": "uint256",
          "name": "_creditScore",
          "type": "uint256"
        },
        {
          "internalType": "uint256",
          "name": "_fraudScore",
          "type": "uint256"
        },
        {
          "internalType": "string",
          "name": "_aiReasoning",
          "type": "string"
        }
      ],
      "name": "requestLoan",
      "outputs": [],
      "stateMutability": "nonpayable",
      "type": "function"
    },
    {
      "inputs": [],
      "name": "totalLoans",
      "outputs": [
        {
          "internalType": "uint256",
          "name": "",
          "type": "uint256"
        }
      ],
      "stateMutability": "view",
      "type": "function"
    },
    {
      "inputs": [],
      "name": "withdraw",
      "outputs": [],
      "stateMutability": "nonpayable",
      "type": "function"
    }
  ],
  "bytecode": "0x608060405234801561001057600080fd5b50600080546001600160a01b03191633179055611ca1806100326000396000f3fe6080604052600436106100c25760003560e01c80633f69100d1161007f5780638da5cb5b116100595780638da5cb5b14610225578063ab7b1c891461025d578063cc952b5714610270578063e08d85731461028657600080fd5b80633f69100d146101ad578063868478e4146101c257806386963b3d146101ef57600080fd5b806303d1a1a1146100c75780630a49cf4d146100fd5780631028d02e146101215780631e700b841461014357806321111063146101635780633ccfd60b14610198575b600080fd5b3480156100d357600080fd5b506100e76100e2366004611554565b6102a6565b6040516100f491906115bc565b60405180910390f35b34801561010957600080fd5b5061011361025881565b6040519081526020016100f4565b34801561012d57600080fd5b5061014161013c3660046116cf565b610411565b005b34801561014f57600080fd5b5061014161015e366004611729565b6105ac565b34801561016f57600080fd5b5061018361017e3660046117ec565b6108ab565b6040516100f499989796959493929190611816565b3480156101a457600080fd5b506101416109b1565b3480156101b957600080fd5b50610113603281565b3480156101ce57600080fd5b506101e26101dd366004611554565b610aeb565b6040516100f49190611875565b3480156101fb57600080fd5b5061020f61020a3660046117ec565b610d68565b6040516100f49a99989796959493929190611969565b34801561023157600080fd5b50600054610245906001600160a01b031681565b6040516001600160a01b0390911681526020016100f4565b61014161026b3660046119ec565b610f81565b34801561027c57600080fd5b5061011360035481565b34801561029257600080fd5b506101416102a1366004611a05565b611131565b6001600160a01b0381166000908152600260209081526040808320805482518185028101850190935280835260609492939192909184015b8282101561040657600084815260209081902060408051610120810182526009860290920180546001600160a01b031683526001810154938301939093526002830154908201526003820154606082015260048201546080820152600582015460a0820152600682015460ff16151560c0820152600782015460e08201526008820180549192916101008401919061037590611a38565b80601f01602080910402602001604051908101604052809291908181526020018280546103a190611a38565b80156103ee5780601f106103c3576101008083540402835291602001916103ee565b820191906000526020600020905b8154815290600101906020018083116103d157829003601f168201915b505050505081525050815260200190600101906102de565b505050509050919050565b6000546001600160a01b031633146104705760405162461bcd60e51b815260206004820152601b60248201527f4f6e6c79206f776e65722063616e2072656a656374206c6f616e73000000000060448201526064015b60405180910390fd5b6001600160a01b03841660009081526001602052604090205483106104cc5760405162461bcd60e51b8152602060048201526012602482015271125b9d985b1a59081c995c5d595cdd08125160721b6044820152606401610467565b6001600160a01b03841660009081526001602052604081208054859081106104f6576104f6611a72565b60009182526020909120600a90910201600681015490915060ff16156105565760405162461bcd60e51b8152602060048201526015602482015274131bd85b88185b1c9958591e48185c1c1c9bdd9959605a1b6044820152606401610467565b846001600160a01b03167f08816805ac90cdd5df5905c592593c37652b499bdb02f1b8e669f66bd66234e882600101548360070154868660405161059d9493929190611a88565b60405180910390a25050505050565b60008a116105fc5760405162461bcd60e51b815260206004820152601d60248201527f416d6f756e74206d7573742062652067726561746572207468616e20300000006044820152606401610467565b6000891161064c5760405162461bcd60e51b815260206004820152601f60248201527f4475726174696f6e206d7573742062652067726561746572207468616e2030006044820152606401610467565b866106995760405162461bcd60e51b815260206004820152601760248201527f507572706f73652063616e6e6f7420626520656d7074790000000000000000006044820152606401610467565b336000818152600160209081526040918290208251610140810184529384528382018e90528383018d90528251601f8c018390048302810183019093528a8352929160608301918c908c9081908401838280828437600092019190915250505090825250604080516020601f8b0181900481028201810190925289815291810191908a908a90819084018382808284376000920182905250938552505042602080850191909152604080850193909352606084018a9052608084018990528251601f880182900482028101820190935286835260a09093019287915086908190840183828082843760009201829052509390945250508354600180820186559482526020918290208451600a9092020180546001600160a01b0319166001600160a01b0390921691909117815590830151938101939093555060408101516002830155606081015190919060038201906107f39082611b2a565b50608082015160048201906108089082611b2a565b5060a0820151600582015560c082015160068201805460ff191691151591909117905560e08201516007820155610100820151600882015561012082015160098201906108559082611b2a565b505050336001600160a01b03167f8d0f28b13b81d6cb2daa1e2558ffe46f372e0a47d938d38fa339bd67eff008298b8b8b8b6040516108979493929190611a88565b60405180910390a250505050505050505050565b600260205281600052604060002081815481106108c757600080fd5b60009182526020909120600990910201805460018201546002830154600384015460048501546005860154600687015460078801546008890180546001600160a01b039099169b50969950949793969295919460ff90911693909290919061092e90611a38565b80601f016020809104026020016040519081016040528092919081815260200182805461095a90611a38565b80156109a75780601f1061097c576101008083540402835291602001916109a7565b820191906000526020600020905b81548152906001019060200180831161098a57829003601f168201915b5050505050905089565b6000546001600160a01b03163314610a0b5760405162461bcd60e51b815260206004820152601760248201527f4f6e6c79206f776e65722063616e2077697468647261770000000000000000006044820152606401610467565b4780610a505760405162461bcd60e51b81526020600482015260146024820152734e6f2066756e647320746f20776974686472617760601b6044820152606401610467565b600080546040516001600160a01b039091169083908381818185875af1925050503d8060008114610a9d576040519150601f19603f3d011682016040523d82523d6000602084013e610aa2565b606091505b5050905080610ae75760405162461bcd60e51b815260206004820152601160248201527015da5d1a191c985dd85b0819985a5b1959607a1b6044820152606401610467565b5050565b6001600160a01b0381166000908152600160209081526040808320805482518185028101850190935280835260609492939192909184015b828210156104065760008481526020908190206040805161014081018252600a860290920180546001600160a01b03168352600181015493830193909352600283015490820152600382018054919291606084019190610b8290611a38565b80601f0160208091040260200160405190810160405280929190818152602001828054610bae90611a38565b8015610bfb5780601f10610bd057610100808354040283529160200191610bfb565b820191906000526020600020905b815481529060010190602001808311610bde57829003601f168201915b50505050508152602001600482018054610c1490611a38565b80601f0160208091040260200160405190810160405280929190818152602001828054610c4090611a38565b8015610c8d5780601f10610c6257610100808354040283529160200191610c8d565b820191906000526020600020905b815481529060010190602001808311610c7057829003601f168201915b505050918352505060058201546020820152600682015460ff1615156040820152600782015460608201526008820154608082015260098201805460a090920191610cd790611a38565b80601f0160208091040260200160405190810160405280929190818152602001828054610d0390611a38565b8015610d505780601f10610d2557610100808354040283529160200191610d50565b820191906000526020600020905b815481529060010190602001808311610d3357829003601f168201915b50505050508152505081526020019060010190610b23565b60016020528160005260406000208181548110610d8457600080fd5b60009182526020909120600a909102018054600182015460028301546003840180546001600160a01b0390941696509194509291610dc190611a38565b80601f0160208091040260200160405190810160405280929190818152602001828054610ded90611a38565b8015610e3a5780601f10610e0f57610100808354040283529160200191610e3a565b820191906000526020600020905b815481529060010190602001808311610e1d57829003601f168201915b505050505090806004018054610e4f90611a38565b80601f0160208091040260200160405190810160405280929190818152602001828054610e7b90611a38565b8015610ec85780601f10610e9d57610100808354040283529160200191610ec8565b820191906000526020600020905b815481529060010190602001808311610eab57829003601f168201915b50505060058401546006850154600786015460088701546009880180549798949760ff90941696509194509291610efe90611a38565b80601f0160208091040260200160405190810160405280929190818152602001828054610f2a90611a38565b8015610f775780601f10610f4c57610100808354040283529160200191610f77565b820191906000526020600020905b815481529060010190602001808311610f5a57829003601f168201915b505050505090508a565b336000908152600260205260409020548110610fd15760405162461bcd60e51b815260206004820152600f60248201526e125b9d985b1a59081b1bd85b881251608a1b6044820152606401610467565b336000908152600260205260408120805483908110610ff257610ff2611a72565b60009182526020909120600990910201600681015490915060ff16156110505760405162461bcd60e51b8152602060048201526013602482015272131bd85b88185b1c9958591e481c995c185a59606a1b6044820152606401610467565b600063bbf81e008260020154836003015484600101546110709190611c00565b61107a9190611c00565b6110849190611c1d565b82600101546110939190611c3f565b9050803410156110dc5760405162461bcd60e51b8152602060048201526014602482015273125b9cdd59999a58da595b9d081c185e5b595b9d60621b6044820152606401610467565b60068201805460ff19166001908117909155820154604080519182526020820185905233917fc7ce0a35f17b490de2a317e7fecb2cae86b1abffb03800b2f492823521382698910160405180910390a2505050565b6000546001600160a01b0316331461118b5760405162461bcd60e51b815260206004820152601c60248201527f4f6e6c79206f776e65722063616e20617070726f7665206c6f616e73000000006044820152606401610467565b6001600160a01b03831660009081526001602052604090205482106111e75760405162461bcd60e51b8152602060048201526012602482015271125b9d985b1a59081c995c5d595cdd08125160721b6044820152606401610467565b6001600160a01b038316600090815260016020526040812080548490811061121157611211611a72565b60009182526020909120600a90910201600681015490915060ff16156112715760405162461bcd60e51b8152602060048201526015602482015274131bd85b88185b1c9958591e48185c1c1c9bdd9959605a1b6044820152606401610467565b610258816007015410156112be5760405162461bcd60e51b81526020600482015260146024820152734372656469742073636f726520746f6f206c6f7760601b6044820152606401610467565b6032816008015411156113095760405162461bcd60e51b815260206004820152601360248201527208ce4c2eac840e4d2e6d640e8dede40d0d2ced606b1b6044820152606401610467565b60068101805460ff191660019081179091556001600160a01b038516600081815260026020818152604092839020835161012081018552948552948601549084015284015490820181905260608201859052426080830181905260a083019161137191611c3f565b81526020016000151581526020018360070154815260200183600901805461139890611a38565b80601f01602080910402602001604051908101604052809291908181526020018280546113c490611a38565b80156114115780601f106113e657610100808354040283529160200191611411565b820191906000526020600020905b8154815290600101906020018083116113f457829003601f168201915b5050509190925250508154600180820184556000938452602093849020835160099093020180546001600160a01b0319166001600160a01b03909316929092178255928201519281019290925560408101516002830155606081015160038301556080810151600483015560a0810151600583015560c081015160068301805460ff191691151591909117905560e0810151600783015561010081015190919060088201906114c09082611b2a565b505060038054915060006114d383611c52565b9091555050600181015460028201546007830154604080519384526020840192909252908201526001600160a01b038516907f3a2fb17990ba9fc92930b56cf93fe97981f8dfdf0f3ff6c90652866495a3b45c9060600160405180910390a250505050565b80356001600160a01b038116811461154f57600080fd5b919050565b60006020828403121561156657600080fd5b61156f82611538565b9392505050565b6000815180845260005b8181101561159c57602081850181015186830182015201611580565b506000602082860101526020601f19601f83011685010191505092915050565b60006020808301818452808551808352604092508286019150828160051b87010184880160005b8381101561167857603f19898403018552815180516001600160a01b0316845287810151888501528681015187850152606080820151908501526080808201519085015260a0808201519085015260c08082015115159085015260e08082015190850152610100908101516101209185018290529061166481860183611576565b9689019694505050908601906001016115e3565b509098975050505050505050565b60008083601f84011261169857600080fd5b50813567ffffffffffffffff8111156116b057600080fd5b6020830191508360208285010111156116c857600080fd5b9250929050565b600080600080606085870312156116e557600080fd5b6116ee85611538565b935060208501359250604085013567ffffffffffffffff81111561171157600080fd5b61171d87828801611686565b95989497509550505050565b60008060008060008060008060008060e08b8d03121561174857600080fd5b8a35995060208b0135985060408b013567ffffffffffffffff8082111561176e57600080fd5b61177a8e838f01611686565b909a50985060608d013591508082111561179357600080fd5b61179f8e838f01611686565b909850965060808d0135955060a08d0135945060c08d01359150808211156117c657600080fd5b506117d38d828e01611686565b915080935050809150509295989b9194979a5092959850565b600080604083850312156117ff57600080fd5b61180883611538565b946020939093013593505050565b600061012060018060a01b038c1683528a60208401528960408401528860608401528760808401528660a084015285151560c08401528460e08401528061010084015261186581840185611576565b9c9b505050505050505050505050565b60006020808301818452808551808352604092508286019150828160051b87010184880160005b8381101561167857888303603f19018552815180516001600160a01b031684526101408882015189860152878201518886015260608083015182828801526118e683880182611576565b92505050608080830151868303828801526119018382611576565b9250505060a080830151818701525060c0808301516119238288018215159052565b505060e08281015190860152610100808301519086015261012091820151858203928601929092526119558183611576565b96890196945050509086019060010161189c565b600061014060018060a01b038d1683528b60208401528a60408401528060608401526119978184018b611576565b905082810360808401526119ab818a611576565b90508760a084015286151560c08401528560e0840152846101008401528281036101208401526119db8185611576565b9d9c50505050505050505050505050565b6000602082840312156119fe57600080fd5b5035919050565b600080600060608486031215611a1a57600080fd5b611a2384611538565b95602085013595506040909401359392505050565b600181811c90821680611a4c57607f821691505b602082108103611a6c57634e487b7160e01b600052602260045260246000fd5b50919050565b634e487b7160e01b600052603260045260246000fd5b84815283602082015260606040820152816060820152818360808301376000818301608090810191909152601f909201601f191601019392505050565b634e487b7160e01b600052604160045260246000fd5b601f821115611b2557600081815260208120601f850160051c81016020861015611b025750805b601f850160051c820191505b81811015611b2157828155600101611b0e565b5050505b505050565b815167ffffffffffffffff811115611b4457611b44611ac5565b611b5881611b528454611a38565b84611adb565b602080601f831160018114611b8d5760008415611b755750858301515b600019600386901b1c1916600185901b178555611b21565b600085815260208120601f198616915b82811015611bbc57888601518255948401946001909101908401611b9d565b5085821015611bda5787850151600019600388901b60f8161c191681555b5050505050600190811b01905550565b634e487b7160e01b600052601160045260246000fd5b8082028115828204841417611c1757611c17611bea565b92915050565b600082611c3a57634e487b7160e01b600052601260045260246000fd5b500490565b80820180821115611c1757611c17611bea565b600060018201611c6457611c64611bea565b506001019056fea26469706673582212208504874e34956604d45eafb49787f2f2805cc0d0dc9b71ffd2f20f11d340297964736f6c63430008140033",
  "linkReferences": {},
  "deployedLinkReferences": {}
}