{
  "_format": "hh-sol-artifact-1",
  "contractName": "TrustlessCredit",
  "sourceName": "contracts/TrustlessCredit.sol",
  "abi": [
    {
      "anonymous": false,
      "inputs": [
        {
          "indexed": true,
          "internalType": "uint256",
          "name": "recordId",
          "type": "uint256"
        }
      ],
      "name": "CreditRecordClosed",
      "type": "event"
    },
    {
      "anonymous": false,
      "inputs": [
        {
          "indexed": true,
          "internalType": "uint256",
          "name": "recordId",
          "type": "uint256"
        },
        {
          "indexed": true,
          "internalType": "address",
          "name": "borrower",
          "type": "address"
        },
        {
          "indexed": false,
          "internalType": "uint256",
          "name": "amount",
          "type": "uint256"
        },
        {
          "indexed": false,
          "internalType": "uint256",
          "name": "interestRate",
          "type": "uint256"
        },
        {
          "indexed": false,
          "internalType": "uint256",
          "name": "term",
          "type": "uint256"
        }
      ],
      "name": "CreditRecordCreated",
      "type": "event"
    },
    {
      "inputs": [
        {
          "internalType": "uint256",
          "name": "_recordId",
          "type": "uint256"
        }
      ],
      "name": "closeCreditRecord",
      "outputs": [],
      "stateMutability": "nonpayable",
      "type": "function"
    },
    {
      "inputs": [
        {
          "internalType": "uint256",
          "name": "_amount",
          "type": "uint256"
        },
        {
          "internalType": "uint256",
          "name": "_interestRate",
          "type": "uint256"
        },
        {
          "internalType": "uint256",
          "name": "_term",
          "type": "uint256"
        }
      ],
      "name": "createCreditRecord",
      "outputs": [
        {
          "internalType": "uint256",
          "name": "",
          "type": "uint256"
        }
      ],
      "stateMutability": "nonpayable",
      "type": "function"
    },
    {
      "inputs": [
        {
          "internalType": "uint256",
          "name": "",
          "type": "uint256"
        }
      ],
      "name": "creditRecords",
      "outputs": [
        {
          "internalType": "address",
          "name": "borrower",
          "type": "address"
        },
        {
          "internalType": "uint256",
          "name": "amount",
          "type": "uint256"
        },
        {
          "internalType": "uint256",
          "name": "interestRate",
          "type": "uint256"
        },
        {
          "internalType": "uint256",
          "name": "term",
          "type": "uint256"
        },
        {
          "internalType": "uint256",
          "name": "startTime",
          "type": "uint256"
        },
        {
          "internalType": "bool",
          "name": "isActive",
          "type": "bool"
        }
      ],
      "stateMutability": "view",
      "type": "function"
    },
    {
      "inputs": [
        {
          "internalType": "uint256",
          "name": "_recordId",
          "type": "uint256"
        }
      ],
      "name": "getCreditRecord",
      "outputs": [
        {
          "internalType": "address",
          "name": "borrower",
          "type": "address"
        },
        {
          "internalType": "uint256",
          "name": "amount",
          "type": "uint256"
        },
        {
          "internalType": "uint256",
          "name": "interestRate",
          "type": "uint256"
        },
        {
          "internalType": "uint256",
          "name": "term",
          "type": "uint256"
        },
        {
          "internalType": "uint256",
          "name": "startTime",
          "type": "uint256"
        },
        {
          "internalType": "bool",
          "name": "isActive",
          "type": "bool"
        }
      ],
      "stateMutability": "view",
      "type": "function"
    },
    {
      "inputs": [],
      "name": "recordCount",
      "outputs": [
        {
          "internalType": "uint256",
          "name": "",
          "type": "uint256"
        }
      ],
      "stateMutability": "view",
      "type": "function"
    }
  ],
  "bytecode": "0x608060405234801561001057600080fd5b50610b86806100206000396000f3fe608060405234801561001057600080fd5b50600436106100575760003560e01c806355e0b5cb1461005c578063587ce02f146100915780638f0dc831146100c1578063900407bc146100f6578063f08085ec14610114575b600080fd5b61007660048036038101906100719190610656565b610130565b604051610088969594939291906106ee565b60405180910390f35b6100ab60048036038101906100a6919061074f565b6101f4565b6040516100b891906107a2565b60405180910390f35b6100db60048036038101906100d69190610656565b610421565b6040516100ed969594939291906106ee565b60405180910390f35b6100fe61048a565b60405161010b91906107a2565b60405180910390f35b61012e60048036038101906101299190610656565b610490565b005b600080600080600080600154871061017d576040517f08c379a00000000000000000000000000000000000000000000000000000000081526004016101749061081a565b60405180910390fd5b600080600089815260200190815260200160002090508060000160009054906101000a900473ffffffffffffffffffffffffffffffffffffffff1681600101548260020154836003015484600401548560050160009054906101000a900460ff169650965096509650965096505091939550919395565b6000808411610238576040517f08c379a000000000000000000000000000000000000000000000000000000000815260040161022f90610886565b60405180910390fd5b6000831161027b576040517f08c379a000000000000000000000000000000000000000000000000000000000815260040161027290610918565b60405180910390fd5b600082116102be576040517f08c379a00000000000000000000000000000000000000000000000000000000081526004016102b590610984565b60405180910390fd5b6000600160008154809291906102d3906109d3565b9190505590506040518060c001604052803373ffffffffffffffffffffffffffffffffffffffff1681526020018681526020018581526020018481526020014281526020016001151581525060008083815260200190815260200160002060008201518160000160006101000a81548173ffffffffffffffffffffffffffffffffffffffff021916908373ffffffffffffffffffffffffffffffffffffffff1602179055506020820151816001015560408201518160020155606082015181600301556080820151816004015560a08201518160050160006101000a81548160ff0219169083151502179055509050503373ffffffffffffffffffffffffffffffffffffffff16817f54dd14c9d267dc0e4d6217e97c97eea1a6a6d02c321d6f1c0658b6324eaf34a787878760405161040e93929190610a1b565b60405180910390a3809150509392505050565b60006020528060005260406000206000915090508060000160009054906101000a900473ffffffffffffffffffffffffffffffffffffffff16908060010154908060020154908060030154908060040154908060050160009054906101000a900460ff16905086565b60015481565b60015481106104d4576040517f08c379a00000000000000000000000000000000000000000000000000000000081526004016104cb9061081a565b60405180910390fd5b600080600083815260200190815260200160002090508060050160009054906101000a900460ff1661053b576040517f08c379a000000000000000000000000000000000000000000000000000000000815260040161053290610a9e565b60405180910390fd5b8060000160009054906101000a900473ffffffffffffffffffffffffffffffffffffffff1673ffffffffffffffffffffffffffffffffffffffff163373ffffffffffffffffffffffffffffffffffffffff16146105cd576040517f08c379a00000000000000000000000000000000000000000000000000000000081526004016105c490610b30565b60405180910390fd5b60008160050160006101000a81548160ff021916908315150217905550817fb2a94c2a662c8615af3f4f3127f8a82cd77dd47c26dc470f5bda47406533e82c60405160405180910390a25050565b600080fd5b6000819050919050565b61063381610620565b811461063e57600080fd5b50565b6000813590506106508161062a565b92915050565b60006020828403121561066c5761066b61061b565b5b600061067a84828501610641565b91505092915050565b600073ffffffffffffffffffffffffffffffffffffffff82169050919050565b60006106ae82610683565b9050919050565b6106be816106a3565b82525050565b6106cd81610620565b82525050565b60008115159050919050565b6106e8816106d3565b82525050565b600060c08201905061070360008301896106b5565b61071060208301886106c4565b61071d60408301876106c4565b61072a60608301866106c4565b61073760808301856106c4565b61074460a08301846106df565b979650505050505050565b6000806000606084860312156107685761076761061b565b5b600061077686828701610641565b935050602061078786828701610641565b925050604061079886828701610641565b9150509250925092565b60006020820190506107b760008301846106c4565b92915050565b600082825260208201905092915050565b7f5265636f726420646f6573206e6f742065786973740000000000000000000000600082015250565b60006108046015836107bd565b915061080f826107ce565b602082019050919050565b60006020820190508181036000830152610833816107f7565b9050919050565b7f416d6f756e74206d7573742062652067726561746572207468616e2030000000600082015250565b6000610870601d836107bd565b915061087b8261083a565b602082019050919050565b6000602082019050818103600083015261089f81610863565b9050919050565b7f496e7465726573742072617465206d757374206265206772656174657220746860008201527f616e203000000000000000000000000000000000000000000000000000000000602082015250565b60006109026024836107bd565b915061090d826108a6565b604082019050919050565b60006020820190508181036000830152610931816108f5565b9050919050565b7f5465726d206d7573742062652067726561746572207468616e20300000000000600082015250565b600061096e601b836107bd565b915061097982610938565b602082019050919050565b6000602082019050818103600083015261099d81610961565b9050919050565b7f4e487b7100000000000000000000000000000000000000000000000000000000600052601160045260246000fd5b60006109de82610620565b91507fffffffffffffffffffffffffffffffffffffffffffffffffffffffffffffffff8203610a1057610a0f6109a4565b5b600182019050919050565b6000606082019050610a3060008301866106c4565b610a3d60208301856106c4565b610a4a60408301846106c4565b949350505050565b7f5265636f726420697320616c726561647920636c6f7365640000000000000000600082015250565b6000610a886018836107bd565b9150610a9382610a52565b602082019050919050565b60006020820190508181036000830152610ab781610a7b565b9050919050565b7f4f6e6c7920626f72726f7765722063616e20636c6f736520746865207265636f60008201527f7264000000000000000000000000000000000000000000000000000000000000602082015250565b6000610b1a6022836107bd565b9150610b2582610abe565b604082019050919050565b60006020820190508181036000830152610b4981610b0d565b905091905056fea2646970667358221220b9adb99e046bcc9b583f4e263fac167e53c9e0939e1847f142ee5c6ad0bf9b7e64736f6c63430008140033",
  "linkReferences": {},
  "deployedLinkReferences": {}
}